{
  "transactions": [
    {
      "hash": "0xd00c2147cec0a204655bdedcfdff81266a94a6856df23a307822cd883f5f1933",
      "transactionType": "CALL",
      "contractName": null,
      "contractAddress": "0x9d29d33d4329640e96cc259e141838eb3eb2f1d9",
      "function": "contribute()",
      "arguments": [],
      "transaction": {
        "from": "0x3b8874ea1c07f503dd20cd21e3945ceecf18d755",
        "to": "0x9d29d33d4329640e96cc259e141838eb3eb2f1d9",
        "gas": "0xbb37",
        "value": "0x5af3107a4000",
        "input": "0xd7bb99ba",
        "nonce": "0xc",
        "chainId": "0xaa36a7"
      },
      "additionalContracts": [],
      "isFixedGasLimit": false
    },
    {
      "hash": "0x0403f903ce5e2a1654d3f353fc4fc817ca49ecb3d4cf79bb13cc7f6b14587a82",
      "transactionType": "CREATE",
      "contractName": "AttackGoto",
      "contractAddress": "0x85c996f02087ef4472e5d671bd5d6cdfcef5021c",
      "function": null,
      "arguments": [
        "0x9D29D33d4329640e96cC259E141838EB3EB2f1d9"
      ],
      "transaction": {
        "from": "0x3b8874ea1c07f503dd20cd21e3945ceecf18d755",
        "gas": "0x36171",
        "value": "0x0",
        "input": "0x608060405234801561001057600080fd5b506040516102163803806102168339818101604052602081101561003357600080fd5b5051600080546001600160a01b039092166001600160a01b03199092169190911790556101b1806100656000396000f3fe608060405234801561001057600080fd5b506004361061004c5760003560e01c806340a3d246146100515780635f9a4bca1461006d57806364dd891a1461008a57806389862c20146100a9575b600080fd5b6100596100cd565b604080519115158252519081900360200190f35b6100596004803603602081101561008357600080fd5b50356100dd565b6100a7600480360360208110156100a057600080fd5b5035610109565b005b6100b161016c565b604080516001600160a01b039092168252519081900360200190f35b600054600160a01b900460ff1681565b6000805460ff600160a01b808304821615810260ff60a01b199093169290921792839055910416919050565b6000805460408051633b669c4d60e21b81526004810185905290516001600160a01b039092169263ed9a71349260248084019382900301818387803b15801561015157600080fd5b505af1158015610165573d6000803e3d6000fd5b5050505050565b6000546001600160a01b03168156fea26469706673582212201f8d1f00fc9ef8d3c3cc32206b833982adc09f9394132e152c9e7fd4ce97e6cf64736f6c634300070000330000000000000000000000009d29d33d4329640e96cc259e141838eb3eb2f1d9",
        "nonce": "0xd",
        "chainId": "0xaa36a7"
      },
      "additionalContracts": [],
      "isFixedGasLimit": false
    },
    {
      "hash": "0x7a3541fcfcb30a56994ecfeeb32c6e43276b972d3e212ee87d63c8bc6f7a3116",
      "transactionType": "CALL",
      "contractName": "AttackGoto",
      "contractAddress": "0x85c996f02087ef4472e5d671bd5d6cdfcef5021c",
      "function": "attack(uint256)",
      "arguments": [
        "1"
      ],
      "transaction": {
        "from": "0x3b8874ea1c07f503dd20cd21e3945ceecf18d755",
        "to": "0x85c996f02087ef4472e5d671bd5d6cdfcef5021c",
        "gas": "0xafbd",
        "value": "0x0",
        "input": "0x64dd891a0000000000000000000000000000000000000000000000000000000000000001",
        "nonce": "0xe",
        "chainId": "0xaa36a7"
      },
      "additionalContracts": [],
      "isFixedGasLimit": false
    },
    {
      "hash": "0x0d11823b6c4ff1fdb34b151107ede71461c567aadc0ce0b0b24d09cdaad18145",
      "transactionType": "CALL",
      "contractName": null,
      "contractAddress": "0x9d29d33d4329640e96cc259e141838eb3eb2f1d9",
      "function": null,
      "arguments": null,
      "transaction": {
        "from": "0x3b8874ea1c07f503dd20cd21e3945ceecf18d755",
        "to": "0x9d29d33d4329640e96cc259e141838eb3eb2f1d9",
        "gas": "0x958a",
        "value": "0x5af3107a4000",
        "input": "0x",
        "nonce": "0xf",
        "chainId": "0xaa36a7"
      },
      "additionalContracts": [],
      "isFixedGasLimit": false
    },
    {
      "hash": "0xce477e8da1578f568887e2fd66a46f879098ebc08a75d592df039b1788cfc0b0",
      "transactionType": "CREATE",
      "contractName": "AttackAddPoint",
      "contractAddress": "0xd2c2f12f6f798863fee856e8d53426b47ad65deb",
      "function": null,
      "arguments": [
        "0x9D29D33d4329640e96cC259E141838EB3EB2f1d9"
      ],
      "transaction": {
        "from": "0x3b8874ea1c07f503dd20cd21e3945ceecf18d755",
        "gas": "0x29f18",
        "value": "0x0",
        "input": "0x608060405234801561001057600080fd5b506040516101633803806101638339818101604052602081101561003357600080fd5b5051600080546001600160a01b039092166001600160a01b031990921691909117905560ff806100646000396000f3fe6080604052348015600f57600080fd5b506004361060325760003560e01c806389862c201460375780639e5faafc146059575b600080fd5b603d6061565b604080516001600160a01b039092168252519081900360200190f35b605f6070565b005b6000546001600160a01b031681565b60008054604080516335f9cd5560e11b815290516001600160a01b0390921692636bf39aaa9260048084019382900301818387803b15801560b057600080fd5b505af115801560c3573d6000803e3d6000fd5b5050505056fea26469706673582212201752fafef43d97545ccd41ea8bebe91d31ec45d4e9491e5545505d3abc4b029f64736f6c634300070000330000000000000000000000009d29d33d4329640e96cc259e141838eb3eb2f1d9",
        "nonce": "0x10",
        "chainId": "0xaa36a7"
      },
      "additionalContracts": [],
      "isFixedGasLimit": false
    },
    {
      "hash": "0xca21ba5cbd46be6fbb3c91c657a5332739576e8cec9bcec0c442e8231e88d3f9",
      "transactionType": "CALL",
      "contractName": "AttackAddPoint",
      "contractAddress": "0xd2c2f12f6f798863fee856e8d53426b47ad65deb",
      "function": "attack()",
      "arguments": [],
      "transaction": {
        "from": "0x3b8874ea1c07f503dd20cd21e3945ceecf18d755",
        "to": "0xd2c2f12f6f798863fee856e8d53426b47ad65deb",
        "gas": "0xa6b0",
        "value": "0x0",
        "input": "0x9e5faafc",
        "nonce": "0x11",
        "chainId": "0xaa36a7"
      },
      "additionalContracts": [],
      "isFixedGasLimit": false
    },
    {
      "hash": "0x5e79b05e6412d0da53f223db74d3adbaaac76514bec707aa433fe265f4e17d64",
      "transactionType": "CALL",
      "contractName": null,
      "contractAddress": "0x9d29d33d4329640e96cc259e141838eb3eb2f1d9",
      "function": "transfer(address,uint256)",
      "arguments": [
        "0x5b73C5498c1E3b4dbA84de0F1833c4a029d90519",
        "1"
      ],
      "transaction": {
        "from": "0x3b8874ea1c07f503dd20cd21e3945ceecf18d755",
        "to": "0x9d29d33d4329640e96cc259e141838eb3eb2f1d9",
        "gas": "0x1ab6e",
        "value": "0x0",
        "input": "0xa9059cbb0000000000000000000000005b73c5498c1e3b4dba84de0f1833c4a029d905190000000000000000000000000000000000000000000000000000000000000001",
        "nonce": "0x12",
        "chainId": "0xaa36a7"
      },
      "additionalContracts": [],
      "isFixedGasLimit": false
    }
  ],
  "receipts": [
    {
      "status": "0x1",
      "cumulativeGasUsed": "0x1c843b7",
      "logs": [],
      "logsBloom": "0x00000000000000000000000000000000000000000000000000000000000000000000000000000000000000000000000000000000000000000000000000000000000000000000000000000000000000000000000000000000000000000000000000000000000000000000000000000000000000000000000000000000000000000000000000000000000000000000000000000000000000000000000000000000000000000000000000000000000000000000000000000000000000000000000000000000000000000000000000000000000000000000000000000000000000000000000000000000000000000000000000000000000000000000000000000000",
      "type": "0x0",
      "transactionHash": "0xd00c2147cec0a204655bdedcfdff81266a94a6856df23a307822cd883f5f1933",
      "transactionIndex": "0x93",
      "blockHash": "0xb3269082341c21dd67e60c26fa35a0c658711708814ca63cb47e48f70b9d4a8e",
      "blockNumber": "0x60fba7",
      "gasUsed": "0x8003",
      "effectiveGasPrice": "0x60f8dbe6d",
      "from": "0x3b8874ea1c07f503dd20cd21e3945ceecf18d755",
      "to": "0x9d29d33d4329640e96cc259e141838eb3eb2f1d9",
      "contractAddress": null
    },
    {
      "status": "0x1",
      "cumulativeGasUsed": "0x104e8a2",
      "logs": [],
      "logsBloom": "0x00000000000000000000000000000000000000000000000000000000000000000000000000000000000000000000000000000000000000000000000000000000000000000000000000000000000000000000000000000000000000000000000000000000000000000000000000000000000000000000000000000000000000000000000000000000000000000000000000000000000000000000000000000000000000000000000000000000000000000000000000000000000000000000000000000000000000000000000000000000000000000000000000000000000000000000000000000000000000000000000000000000000000000000000000000000",
      "type": "0x0",
      "transactionHash": "0x0403f903ce5e2a1654d3f353fc4fc817ca49ecb3d4cf79bb13cc7f6b14587a82",
      "transactionIndex": "0xc9",
      "blockHash": "0x07189a74cf0f5a509cd683a4c750ebe4691cbe0e0ef6db81853cb5c9ac95fc37",
      "blockNumber": "0x60fbca",
      "gasUsed": "0x299de",
      "effectiveGasPrice": "0x60f8dbe6d",
      "from": "0x3b8874ea1c07f503dd20cd21e3945ceecf18d755",
      "to": null,
      "contractAddress": "0x85c996f02087ef4472e5d671bd5d6cdfcef5021c"
    },
    {
      "status": "0x1",
      "cumulativeGasUsed": "0x10720db",
      "logs": [],
      "logsBloom": "0x00000000000000000000000000000000000000000000000000000000000000000000000000000000000000000000000000000000000000000000000000000000000000000000000000000000000000000000000000000000000000000000000000000000000000000000000000000000000000000000000000000000000000000000000000000000000000000000000000000000000000000000000000000000000000000000000000000000000000000000000000000000000000000000000000000000000000000000000000000000000000000000000000000000000000000000000000000000000000000000000000000000000000000000000000000000",
      "type": "0x0",
      "transactionHash": "0x7a3541fcfcb30a56994ecfeeb32c6e43276b972d3e212ee87d63c8bc6f7a3116",
      "transactionIndex": "0xcb",
      "blockHash": "0x07189a74cf0f5a509cd683a4c750ebe4691cbe0e0ef6db81853cb5c9ac95fc37",
      "blockNumber": "0x60fbca",
      "gasUsed": "0x7f3c",
      "effectiveGasPrice": "0x60f8dbe6d",
      "from": "0x3b8874ea1c07f503dd20cd21e3945ceecf18d755",
      "to": "0x85c996f02087ef4472e5d671bd5d6cdfcef5021c",
      "contractAddress": null
    },
    {
      "status": "0x1",
      "cumulativeGasUsed": "0x1078d1f",
      "logs": [],
      "logsBloom": "0x00000000000000000000000000000000000000000000000000000000000000000000000000000000000000000000000000000000000000000000000000000000000000000000000000000000000000000000000000000000000000000000000000000000000000000000000000000000000000000000000000000000000000000000000000000000000000000000000000000000000000000000000000000000000000000000000000000000000000000000000000000000000000000000000000000000000000000000000000000000000000000000000000000000000000000000000000000000000000000000000000000000000000000000000000000000",
      "type": "0x0",
      "transactionHash": "0x0d11823b6c4ff1fdb34b151107ede71461c567aadc0ce0b0b24d09cdaad18145",
      "transactionIndex": "0xcc",
      "blockHash": "0x07189a74cf0f5a509cd683a4c750ebe4691cbe0e0ef6db81853cb5c9ac95fc37",
      "blockNumber": "0x60fbca",
      "gasUsed": "0x6c44",
      "effectiveGasPrice": "0x60f8dbe6d",
      "from": "0x3b8874ea1c07f503dd20cd21e3945ceecf18d755",
      "to": "0x9d29d33d4329640e96cc259e141838eb3eb2f1d9",
      "contractAddress": null
    },
    {
      "status": "0x1",
      "cumulativeGasUsed": "0x1099173",
      "logs": [],
      "logsBloom": "0x00000000000000000000000000000000000000000000000000000000000000000000000000000000000000000000000000000000000000000000000000000000000000000000000000000000000000000000000000000000000000000000000000000000000000000000000000000000000000000000000000000000000000000000000000000000000000000000000000000000000000000000000000000000000000000000000000000000000000000000000000000000000000000000000000000000000000000000000000000000000000000000000000000000000000000000000000000000000000000000000000000000000000000000000000000000",
      "type": "0x0",
      "transactionHash": "0xce477e8da1578f568887e2fd66a46f879098ebc08a75d592df039b1788cfc0b0",
      "transactionIndex": "0xcd",
      "blockHash": "0x07189a74cf0f5a509cd683a4c750ebe4691cbe0e0ef6db81853cb5c9ac95fc37",
      "blockNumber": "0x60fbca",
      "gasUsed": "0x20454",
      "effectiveGasPrice": "0x60f8dbe6d",
      "from": "0x3b8874ea1c07f503dd20cd21e3945ceecf18d755",
      "to": null,
      "contractAddress": "0xd2c2f12f6f798863fee856e8d53426b47ad65deb"
    },
    {
      "status": "0x1",
      "cumulativeGasUsed": "0x10a0a22",
      "logs": [],
      "logsBloom": "0x00000000000000000000000000000000000000000000000000000000000000000000000000000000000000000000000000000000000000000000000000000000000000000000000000000000000000000000000000000000000000000000000000000000000000000000000000000000000000000000000000000000000000000000000000000000000000000000000000000000000000000000000000000000000000000000000000000000000000000000000000000000000000000000000000000000000000000000000000000000000000000000000000000000000000000000000000000000000000000000000000000000000000000000000000000000",
      "type": "0x0",
      "transactionHash": "0xca21ba5cbd46be6fbb3c91c657a5332739576e8cec9bcec0c442e8231e88d3f9",
      "transactionIndex": "0xce",
      "blockHash": "0x07189a74cf0f5a509cd683a4c750ebe4691cbe0e0ef6db81853cb5c9ac95fc37",
      "blockNumber": "0x60fbca",
      "gasUsed": "0x78af",
      "effectiveGasPrice": "0x60f8dbe6d",
      "from": "0x3b8874ea1c07f503dd20cd21e3945ceecf18d755",
      "to": "0xd2c2f12f6f798863fee856e8d53426b47ad65deb",
      "contractAddress": null
    },
    {
      "status": "0x1",
      "cumulativeGasUsed": "0x1751d9c",
      "logs": [],
      "logsBloom": "0x00000000000000000000000000000000000000000000000000000000000000000000000000000000000000000000000000000000000000000000000000000000000000000000000000000000000000000000000000000000000000000000000000000000000000000000000000000000000000000000000000000000000000000000000000000000000000000000000000000000000000000000000000000000000000000000000000000000000000000000000000000000000000000000000000000000000000000000000000000000000000000000000000000000000000000000000000000000000000000000000000000000000000000000000000000000",
      "type": "0x0",
      "transactionHash": "0x5e79b05e6412d0da53f223db74d3adbaaac76514bec707aa433fe265f4e17d64",
      "transactionIndex": "0xc9",
      "blockHash": "0x465baa419895c6a229e27309d6558b9995b9c1b8171a4aa516b410998e97410c",
      "blockNumber": "0x60fbcc",
      "gasUsed": "0x13574",
      "effectiveGasPrice": "0x60f8dbe6d",
      "from": "0x3b8874ea1c07f503dd20cd21e3945ceecf18d755",
      "to": "0x9d29d33d4329640e96cc259e141838eb3eb2f1d9",
      "contractAddress": null
    }
  ],
  "libraries": [],
  "pending": [],
  "returns": {},
  "timestamp": 1721648270,
  "chain": 11155111,
  "commit": "9a7c81b"
}